{
	"contractName": "Spriyo",
	"abi": [
		{
			"inputs": [],
			"stateMutability": "nonpayable",
			"type": "constructor"
		},
		{
			"anonymous": false,
			"inputs": [
				{
					"indexed": true,
					"internalType": "address",
					"name": "owner",
					"type": "address"
				},
				{
					"indexed": true,
					"internalType": "address",
					"name": "approved",
					"type": "address"
				},
				{
					"indexed": true,
					"internalType": "uint256",
					"name": "tokenId",
					"type": "uint256"
				}
			],
			"name": "Approval",
			"type": "event"
		},
		{
			"anonymous": false,
			"inputs": [
				{
					"indexed": true,
					"internalType": "address",
					"name": "owner",
					"type": "address"
				},
				{
					"indexed": true,
					"internalType": "address",
					"name": "operator",
					"type": "address"
				},
				{
					"indexed": false,
					"internalType": "bool",
					"name": "approved",
					"type": "bool"
				}
			],
			"name": "ApprovalForAll",
			"type": "event"
		},
		{
			"anonymous": false,
			"inputs": [
				{
					"indexed": true,
					"internalType": "address",
					"name": "from",
					"type": "address"
				},
				{
					"indexed": true,
					"internalType": "address",
					"name": "to",
					"type": "address"
				},
				{
					"indexed": true,
					"internalType": "uint256",
					"name": "tokenId",
					"type": "uint256"
				}
			],
			"name": "Transfer",
			"type": "event"
		},
		{
			"inputs": [],
			"name": "_assetCount",
			"outputs": [
				{
					"internalType": "uint256",
					"name": "_value",
					"type": "uint256"
				}
			],
			"stateMutability": "view",
			"type": "function"
		},
		{
			"inputs": [
				{
					"internalType": "address",
					"name": "to",
					"type": "address"
				},
				{
					"internalType": "uint256",
					"name": "tokenId",
					"type": "uint256"
				}
			],
			"name": "approve",
			"outputs": [],
			"stateMutability": "nonpayable",
			"type": "function"
		},
		{
			"inputs": [
				{
					"internalType": "address",
					"name": "owner",
					"type": "address"
				}
			],
			"name": "balanceOf",
			"outputs": [
				{
					"internalType": "uint256",
					"name": "",
					"type": "uint256"
				}
			],
			"stateMutability": "view",
			"type": "function"
		},
		{
			"inputs": [
				{
					"internalType": "uint256",
					"name": "tokenId",
					"type": "uint256"
				}
			],
			"name": "getApproved",
			"outputs": [
				{
					"internalType": "address",
					"name": "",
					"type": "address"
				}
			],
			"stateMutability": "view",
			"type": "function"
		},
		{
			"inputs": [
				{
					"internalType": "address",
					"name": "owner",
					"type": "address"
				},
				{
					"internalType": "address",
					"name": "operator",
					"type": "address"
				}
			],
			"name": "isApprovedForAll",
			"outputs": [
				{
					"internalType": "bool",
					"name": "",
					"type": "bool"
				}
			],
			"stateMutability": "view",
			"type": "function"
		},
		{
			"inputs": [],
			"name": "name",
			"outputs": [
				{
					"internalType": "string",
					"name": "",
					"type": "string"
				}
			],
			"stateMutability": "view",
			"type": "function"
		},
		{
			"inputs": [
				{
					"internalType": "uint256",
					"name": "tokenId",
					"type": "uint256"
				}
			],
			"name": "ownerOf",
			"outputs": [
				{
					"internalType": "address",
					"name": "",
					"type": "address"
				}
			],
			"stateMutability": "view",
			"type": "function"
		},
		{
			"inputs": [
				{
					"internalType": "address",
					"name": "from",
					"type": "address"
				},
				{
					"internalType": "address",
					"name": "to",
					"type": "address"
				},
				{
					"internalType": "uint256",
					"name": "tokenId",
					"type": "uint256"
				}
			],
			"name": "safeTransferFrom",
			"outputs": [],
			"stateMutability": "nonpayable",
			"type": "function"
		},
		{
			"inputs": [
				{
					"internalType": "address",
					"name": "from",
					"type": "address"
				},
				{
					"internalType": "address",
					"name": "to",
					"type": "address"
				},
				{
					"internalType": "uint256",
					"name": "tokenId",
					"type": "uint256"
				},
				{
					"internalType": "bytes",
					"name": "_data",
					"type": "bytes"
				}
			],
			"name": "safeTransferFrom",
			"outputs": [],
			"stateMutability": "nonpayable",
			"type": "function"
		},
		{
			"inputs": [
				{
					"internalType": "address",
					"name": "operator",
					"type": "address"
				},
				{
					"internalType": "bool",
					"name": "approved",
					"type": "bool"
				}
			],
			"name": "setApprovalForAll",
			"outputs": [],
			"stateMutability": "nonpayable",
			"type": "function"
		},
		{
			"inputs": [],
			"name": "symbol",
			"outputs": [
				{
					"internalType": "string",
					"name": "",
					"type": "string"
				}
			],
			"stateMutability": "view",
			"type": "function"
		},
		{
			"inputs": [
				{
					"internalType": "uint256",
					"name": "index",
					"type": "uint256"
				}
			],
			"name": "tokenByIndex",
			"outputs": [
				{
					"internalType": "uint256",
					"name": "",
					"type": "uint256"
				}
			],
			"stateMutability": "view",
			"type": "function"
		},
		{
			"inputs": [
				{
					"internalType": "address",
					"name": "owner",
					"type": "address"
				},
				{
					"internalType": "uint256",
					"name": "index",
					"type": "uint256"
				}
			],
			"name": "tokenOfOwnerByIndex",
			"outputs": [
				{
					"internalType": "uint256",
					"name": "",
					"type": "uint256"
				}
			],
			"stateMutability": "view",
			"type": "function"
		},
		{
			"inputs": [],
			"name": "totalSupply",
			"outputs": [
				{
					"internalType": "uint256",
					"name": "",
					"type": "uint256"
				}
			],
			"stateMutability": "view",
			"type": "function"
		},
		{
			"inputs": [
				{
					"internalType": "address",
					"name": "from",
					"type": "address"
				},
				{
					"internalType": "address",
					"name": "to",
					"type": "address"
				},
				{
					"internalType": "uint256",
					"name": "tokenId",
					"type": "uint256"
				}
			],
			"name": "transferFrom",
			"outputs": [],
			"stateMutability": "nonpayable",
			"type": "function"
		},
		{
			"inputs": [
				{
					"internalType": "string",
					"name": "_tokeURI",
					"type": "string"
				}
			],
			"name": "mint",
			"outputs": [
				{
					"internalType": "uint256",
					"name": "",
					"type": "uint256"
				}
			],
			"stateMutability": "nonpayable",
			"type": "function"
		},
		{
			"inputs": [
				{
					"internalType": "uint256",
					"name": "tokenId",
					"type": "uint256"
				}
			],
			"name": "burn",
			"outputs": [],
			"stateMutability": "nonpayable",
			"type": "function"
		},
		{
			"inputs": [
				{
					"internalType": "uint256",
					"name": "tokenId",
					"type": "uint256"
				}
			],
			"name": "tokenURI",
			"outputs": [
				{
					"internalType": "string",
					"name": "",
					"type": "string"
				}
			],
			"stateMutability": "view",
			"type": "function"
		},
		{
			"inputs": [
				{
					"internalType": "bytes4",
					"name": "interfaceId",
					"type": "bytes4"
				}
			],
			"name": "supportsInterface",
			"outputs": [
				{
					"internalType": "bool",
					"name": "",
					"type": "bool"
				}
			],
			"stateMutability": "view",
			"type": "function"
		}
	],
	"bytecode": "0x60806040523480156200001157600080fd5b506040518060400160405280600681526020017f53707269796f00000000000000000000000000000000000000000000000000008152506040518060400160405280600481526020017f5350524f00000000000000000000000000000000000000000000000000000000815250816000908051906020019062000096929190620000b8565b508060019080519060200190620000af929190620000b8565b505050620001cd565b828054620000c69062000168565b90600052602060002090601f016020900481019282620000ea576000855562000136565b82601f106200010557805160ff191683800117855562000136565b8280016001018555821562000136579182015b828111156200013557825182559160200191906001019062000118565b5b50905062000145919062000149565b5090565b5b80821115620001645760008160009055506001016200014a565b5090565b600060028204905060018216806200018157607f821691505b602082108114156200019857620001976200019e565b5b50919050565b7f4e487b7100000000000000000000000000000000000000000000000000000000600052602260045260246000fd5b6135be80620001dd6000396000f3fe608060405234801561001057600080fd5b50600436106101215760003560e01c80634f6ccce7116100ad578063b88d4fde11610071578063b88d4fde1461032c578063be3ebbe814610348578063c87b56dd14610366578063d85d3d2714610396578063e985e9c5146103c657610121565b80634f6ccce7146102625780636352211e1461029257806370a08231146102c257806395d89b41146102f2578063a22cb4651461031057610121565b806318160ddd116100f457806318160ddd146101c057806323b872dd146101de5780632f745c59146101fa57806342842e0e1461022a57806342966c681461024657610121565b806301ffc9a71461012657806306fdde0314610156578063081812fc14610174578063095ea7b3146101a4575b600080fd5b610140600480360381019061013b9190612480565b6103f6565b60405161014d9190612921565b60405180910390f35b61015e610408565b60405161016b919061293c565b60405180910390f35b61018e60048036038101906101899190612523565b61049a565b60405161019b91906128ba565b60405180910390f35b6101be60048036038101906101b99190612440565b61051f565b005b6101c8610637565b6040516101d59190612b9e565b60405180910390f35b6101f860048036038101906101f3919061232a565b610644565b005b610214600480360381019061020f9190612440565b6106a4565b6040516102219190612b9e565b60405180910390f35b610244600480360381019061023f919061232a565b610749565b005b610260600480360381019061025b9190612523565b610769565b005b61027c60048036038101906102779190612523565b610775565b6040516102899190612b9e565b60405180910390f35b6102ac60048036038101906102a79190612523565b6107e6565b6040516102b991906128ba565b60405180910390f35b6102dc60048036038101906102d791906122bd565b610898565b6040516102e99190612b9e565b60405180910390f35b6102fa610950565b604051610307919061293c565b60405180910390f35b61032a60048036038101906103259190612400565b6109e2565b005b6103466004803603810190610341919061237d565b6109f8565b005b610350610a5a565b60405161035d9190612b9e565b60405180910390f35b610380600480360381019061037b9190612523565b610a66565b60405161038d919061293c565b60405180910390f35b6103b060048036038101906103ab91906124da565b610a78565b6040516103bd9190612b9e565b60405180910390f35b6103e060048036038101906103db91906122ea565b610aaf565b6040516103ed9190612921565b60405180910390f35b600061040182610b43565b9050919050565b60606000805461041790612df4565b80601f016020809104026020016040519081016040528092919081815260200182805461044390612df4565b80156104905780601f1061046557610100808354040283529160200191610490565b820191906000526020600020905b81548152906001019060200180831161047357829003601f168201915b5050505050905090565b60006104a582610bbd565b6104e4576040517f08c379a00000000000000000000000000000000000000000000000000000000081526004016104db90612afe565b60405180910390fd5b6004600083815260200190815260200160002060009054906101000a900473ffffffffffffffffffffffffffffffffffffffff169050919050565b600061052a826107e6565b90508073ffffffffffffffffffffffffffffffffffffffff168373ffffffffffffffffffffffffffffffffffffffff16141561059b576040517f08c379a000000000000000000000000000000000000000000000000000000000815260040161059290612b3e565b60405180910390fd5b8073ffffffffffffffffffffffffffffffffffffffff166105ba610c29565b73ffffffffffffffffffffffffffffffffffffffff1614806105e957506105e8816105e3610c29565b610aaf565b5b610628576040517f08c379a000000000000000000000000000000000000000000000000000000000815260040161061f90612a3e565b60405180910390fd5b6106328383610c31565b505050565b6000600980549050905090565b61065561064f610c29565b82610cea565b610694576040517f08c379a000000000000000000000000000000000000000000000000000000000815260040161068b90612b5e565b60405180910390fd5b61069f838383610dc8565b505050565b60006106af83610898565b82106106f0576040517f08c379a00000000000000000000000000000000000000000000000000000000081526004016106e79061295e565b60405180910390fd5b600760008473ffffffffffffffffffffffffffffffffffffffff1673ffffffffffffffffffffffffffffffffffffffff168152602001908152602001600020600083815260200190815260200160002054905092915050565b610764838383604051806020016040528060008152506109f8565b505050565b6107728161102f565b50565b600061077f610637565b82106107c0576040517f08c379a00000000000000000000000000000000000000000000000000000000081526004016107b790612b7e565b60405180910390fd5b600982815481106107d4576107d3612f8d565b5b90600052602060002001549050919050565b6000806002600084815260200190815260200160002060009054906101000a900473ffffffffffffffffffffffffffffffffffffffff169050600073ffffffffffffffffffffffffffffffffffffffff168173ffffffffffffffffffffffffffffffffffffffff16141561088f576040517f08c379a000000000000000000000000000000000000000000000000000000000815260040161088690612a7e565b60405180910390fd5b80915050919050565b60008073ffffffffffffffffffffffffffffffffffffffff168273ffffffffffffffffffffffffffffffffffffffff161415610909576040517f08c379a000000000000000000000000000000000000000000000000000000000815260040161090090612a5e565b60405180910390fd5b600360008373ffffffffffffffffffffffffffffffffffffffff1673ffffffffffffffffffffffffffffffffffffffff168152602001908152602001600020549050919050565b60606001805461095f90612df4565b80601f016020809104026020016040519081016040528092919081815260200182805461098b90612df4565b80156109d85780601f106109ad576101008083540402835291602001916109d8565b820191906000526020600020905b8154815290600101906020018083116109bb57829003601f168201915b5050505050905090565b6109f46109ed610c29565b838361103b565b5050565b610a09610a03610c29565b83610cea565b610a48576040517f08c379a0000000000000000000000000000000000000000000000000000000008152600401610a3f90612b5e565b60405180910390fd5b610a54848484846111a8565b50505050565b600b8060000154905081565b6060610a7182611204565b9050919050565b6000610a84600b611356565b6000610a90600b61136c565b9050610a9c338261137a565b610aa68184611554565b80915050919050565b6000600560008473ffffffffffffffffffffffffffffffffffffffff1673ffffffffffffffffffffffffffffffffffffffff16815260200190815260200160002060008373ffffffffffffffffffffffffffffffffffffffff1673ffffffffffffffffffffffffffffffffffffffff16815260200190815260200160002060009054906101000a900460ff16905092915050565b60007f780e9d63000000000000000000000000000000000000000000000000000000007bffffffffffffffffffffffffffffffffffffffffffffffffffffffff1916827bffffffffffffffffffffffffffffffffffffffffffffffffffffffff19161480610bb65750610bb5826115c8565b5b9050919050565b60008073ffffffffffffffffffffffffffffffffffffffff166002600084815260200190815260200160002060009054906101000a900473ffffffffffffffffffffffffffffffffffffffff1673ffffffffffffffffffffffffffffffffffffffff1614159050919050565b600033905090565b816004600083815260200190815260200160002060006101000a81548173ffffffffffffffffffffffffffffffffffffffff021916908373ffffffffffffffffffffffffffffffffffffffff160217905550808273ffffffffffffffffffffffffffffffffffffffff16610ca4836107e6565b73ffffffffffffffffffffffffffffffffffffffff167f8c5be1e5ebec7d5bd14f71427d1e84f3dd0314c0f7b2291e5b200ac8c7c3b92560405160405180910390a45050565b6000610cf582610bbd565b610d34576040517f08c379a0000000000000000000000000000000000000000000000000000000008152600401610d2b90612a1e565b60405180910390fd5b6000610d3f836107e6565b90508073ffffffffffffffffffffffffffffffffffffffff168473ffffffffffffffffffffffffffffffffffffffff161480610d815750610d808185610aaf565b5b80610dbf57508373ffffffffffffffffffffffffffffffffffffffff16610da78461049a565b73ffffffffffffffffffffffffffffffffffffffff16145b91505092915050565b8273ffffffffffffffffffffffffffffffffffffffff16610de8826107e6565b73ffffffffffffffffffffffffffffffffffffffff1614610e3e576040517f08c379a0000000000000000000000000000000000000000000000000000000008152600401610e359061299e565b60405180910390fd5b600073ffffffffffffffffffffffffffffffffffffffff168273ffffffffffffffffffffffffffffffffffffffff161415610eae576040517f08c379a0000000000000000000000000000000000000000000000000000000008152600401610ea5906129de565b60405180910390fd5b610eb98383836116aa565b610ec4600082610c31565b6001600360008573ffffffffffffffffffffffffffffffffffffffff1673ffffffffffffffffffffffffffffffffffffffff1681526020019081526020016000206000828254610f149190612d0a565b925050819055506001600360008473ffffffffffffffffffffffffffffffffffffffff1673ffffffffffffffffffffffffffffffffffffffff1681526020019081526020016000206000828254610f6b9190612c83565b92505081905550816002600083815260200190815260200160002060006101000a81548173ffffffffffffffffffffffffffffffffffffffff021916908373ffffffffffffffffffffffffffffffffffffffff160217905550808273ffffffffffffffffffffffffffffffffffffffff168473ffffffffffffffffffffffffffffffffffffffff167fddf252ad1be2c89b69c2b068fc378daa952ba7f163c4a11628f55a4df523b3ef60405160405180910390a461102a8383836116ba565b505050565b611038816116bf565b50565b8173ffffffffffffffffffffffffffffffffffffffff168373ffffffffffffffffffffffffffffffffffffffff1614156110aa576040517f08c379a00000000000000000000000000000000000000000000000000000000081526004016110a1906129fe565b60405180910390fd5b80600560008573ffffffffffffffffffffffffffffffffffffffff1673ffffffffffffffffffffffffffffffffffffffff16815260200190815260200160002060008473ffffffffffffffffffffffffffffffffffffffff1673ffffffffffffffffffffffffffffffffffffffff16815260200190815260200160002060006101000a81548160ff0219169083151502179055508173ffffffffffffffffffffffffffffffffffffffff168373ffffffffffffffffffffffffffffffffffffffff167f17307eab39ab6107e8899845ad3d59bd9653f200f220920489ca2b5937696c318360405161119b9190612921565b60405180910390a3505050565b6111b3848484610dc8565b6111bf84848484611712565b6111fe576040517f08c379a00000000000000000000000000000000000000000000000000000000081526004016111f59061297e565b60405180910390fd5b50505050565b606061120f82610bbd565b61124e576040517f08c379a000000000000000000000000000000000000000000000000000000000815260040161124590612ade565b60405180910390fd5b600060066000848152602001908152602001600020805461126e90612df4565b80601f016020809104026020016040519081016040528092919081815260200182805461129a90612df4565b80156112e75780601f106112bc576101008083540402835291602001916112e7565b820191906000526020600020905b8154815290600101906020018083116112ca57829003601f168201915b5050505050905060006112f86118a9565b905060008151141561130e578192505050611351565b60008251111561134357808260405160200161132b929190612896565b60405160208183030381529060405292505050611351565b61134c846118c0565b925050505b919050565b6001816000016000828254019250508190555050565b600081600001549050919050565b600073ffffffffffffffffffffffffffffffffffffffff168273ffffffffffffffffffffffffffffffffffffffff1614156113ea576040517f08c379a00000000000000000000000000000000000000000000000000000000081526004016113e190612abe565b60405180910390fd5b6113f381610bbd565b15611433576040517f08c379a000000000000000000000000000000000000000000000000000000000815260040161142a906129be565b60405180910390fd5b61143f600083836116aa565b6001600360008473ffffffffffffffffffffffffffffffffffffffff1673ffffffffffffffffffffffffffffffffffffffff168152602001908152602001600020600082825461148f9190612c83565b92505081905550816002600083815260200190815260200160002060006101000a81548173ffffffffffffffffffffffffffffffffffffffff021916908373ffffffffffffffffffffffffffffffffffffffff160217905550808273ffffffffffffffffffffffffffffffffffffffff16600073ffffffffffffffffffffffffffffffffffffffff167fddf252ad1be2c89b69c2b068fc378daa952ba7f163c4a11628f55a4df523b3ef60405160405180910390a4611550600083836116ba565b5050565b61155d82610bbd565b61159c576040517f08c379a000000000000000000000000000000000000000000000000000000000815260040161159390612a9e565b60405180910390fd5b806006600084815260200190815260200160002090805190602001906115c3929190612091565b505050565b60007f80ac58cd000000000000000000000000000000000000000000000000000000007bffffffffffffffffffffffffffffffffffffffffffffffffffffffff1916827bffffffffffffffffffffffffffffffffffffffffffffffffffffffff1916148061169357507f5b5e139f000000000000000000000000000000000000000000000000000000007bffffffffffffffffffffffffffffffffffffffffffffffffffffffff1916827bffffffffffffffffffffffffffffffffffffffffffffffffffffffff1916145b806116a357506116a282611967565b5b9050919050565b6116b58383836119d1565b505050565b505050565b6116c881611ae5565b60006006600083815260200190815260200160002080546116e890612df4565b90501461170f5760066000828152602001908152602001600020600061170e9190612117565b5b50565b60006117338473ffffffffffffffffffffffffffffffffffffffff16611c02565b1561189c578373ffffffffffffffffffffffffffffffffffffffff1663150b7a0261175c610c29565b8786866040518563ffffffff1660e01b815260040161177e94939291906128d5565b602060405180830381600087803b15801561179857600080fd5b505af19250505080156117c957506040513d601f19601f820116820180604052508101906117c691906124ad565b60015b61184c573d80600081146117f9576040519150601f19603f3d011682016040523d82523d6000602084013e6117fe565b606091505b50600081511415611844576040517f08c379a000000000000000000000000000000000000000000000000000000000815260040161183b9061297e565b60405180910390fd5b805181602001fd5b63150b7a0260e01b7bffffffffffffffffffffffffffffffffffffffffffffffffffffffff1916817bffffffffffffffffffffffffffffffffffffffffffffffffffffffff1916149150506118a1565b600190505b949350505050565b606060405180602001604052806000815250905090565b60606118cb82610bbd565b61190a576040517f08c379a000000000000000000000000000000000000000000000000000000000815260040161190190612b1e565b60405180910390fd5b60006119146118a9565b90506000815111611934576040518060200160405280600081525061195f565b8061193e84611c25565b60405160200161194f929190612896565b6040516020818303038152906040525b915050919050565b60007f01ffc9a7000000000000000000000000000000000000000000000000000000007bffffffffffffffffffffffffffffffffffffffffffffffffffffffff1916827bffffffffffffffffffffffffffffffffffffffffffffffffffffffff1916149050919050565b6119dc838383611d86565b600073ffffffffffffffffffffffffffffffffffffffff168373ffffffffffffffffffffffffffffffffffffffff161415611a1f57611a1a81611d8b565b611a5e565b8173ffffffffffffffffffffffffffffffffffffffff168373ffffffffffffffffffffffffffffffffffffffff1614611a5d57611a5c8382611dd4565b5b5b600073ffffffffffffffffffffffffffffffffffffffff168273ffffffffffffffffffffffffffffffffffffffff161415611aa157611a9c81611f41565b611ae0565b8273ffffffffffffffffffffffffffffffffffffffff168273ffffffffffffffffffffffffffffffffffffffff1614611adf57611ade8282612012565b5b5b505050565b6000611af0826107e6565b9050611afe816000846116aa565b611b09600083610c31565b6001600360008373ffffffffffffffffffffffffffffffffffffffff1673ffffffffffffffffffffffffffffffffffffffff1681526020019081526020016000206000828254611b599190612d0a565b925050819055506002600083815260200190815260200160002060006101000a81549073ffffffffffffffffffffffffffffffffffffffff021916905581600073ffffffffffffffffffffffffffffffffffffffff168273ffffffffffffffffffffffffffffffffffffffff167fddf252ad1be2c89b69c2b068fc378daa952ba7f163c4a11628f55a4df523b3ef60405160405180910390a4611bfe816000846116ba565b5050565b6000808273ffffffffffffffffffffffffffffffffffffffff163b119050919050565b60606000821415611c6d576040518060400160405280600181526020017f30000000000000000000000000000000000000000000000000000000000000008152509050611d81565b600082905060005b60008214611c9f578080611c8890612e57565b915050600a82611c989190612cd9565b9150611c75565b60008167ffffffffffffffff811115611cbb57611cba612fbc565b5b6040519080825280601f01601f191660200182016040528015611ced5781602001600182028036833780820191505090505b5090505b60008514611d7a57600182611d069190612d0a565b9150600a85611d159190612ea0565b6030611d219190612c83565b60f81b818381518110611d3757611d36612f8d565b5b60200101907effffffffffffffffffffffffffffffffffffffffffffffffffffffffffffff1916908160001a905350600a85611d739190612cd9565b9450611cf1565b8093505050505b919050565b505050565b600980549050600a600083815260200190815260200160002081905550600981908060018154018082558091505060019003906000526020600020016000909190919091505550565b60006001611de184610898565b611deb9190612d0a565b9050600060086000848152602001908152602001600020549050818114611ed0576000600760008673ffffffffffffffffffffffffffffffffffffffff1673ffffffffffffffffffffffffffffffffffffffff168152602001908152602001600020600084815260200190815260200160002054905080600760008773ffffffffffffffffffffffffffffffffffffffff1673ffffffffffffffffffffffffffffffffffffffff168152602001908152602001600020600084815260200190815260200160002081905550816008600083815260200190815260200160002081905550505b6008600084815260200190815260200160002060009055600760008573ffffffffffffffffffffffffffffffffffffffff1673ffffffffffffffffffffffffffffffffffffffff16815260200190815260200160002060008381526020019081526020016000206000905550505050565b60006001600980549050611f559190612d0a565b90506000600a6000848152602001908152602001600020549050600060098381548110611f8557611f84612f8d565b5b906000526020600020015490508060098381548110611fa757611fa6612f8d565b5b906000526020600020018190555081600a600083815260200190815260200160002081905550600a6000858152602001908152602001600020600090556009805480611ff657611ff5612f5e565b5b6001900381819060005260206000200160009055905550505050565b600061201d83610898565b905081600760008573ffffffffffffffffffffffffffffffffffffffff1673ffffffffffffffffffffffffffffffffffffffff168152602001908152602001600020600083815260200190815260200160002081905550806008600084815260200190815260200160002081905550505050565b82805461209d90612df4565b90600052602060002090601f0160209004810192826120bf5760008555612106565b82601f106120d857805160ff1916838001178555612106565b82800160010185558215612106579182015b828111156121055782518255916020019190600101906120ea565b5b5090506121139190612157565b5090565b50805461212390612df4565b6000825580601f106121355750612154565b601f0160209004906000526020600020908101906121539190612157565b5b50565b5b80821115612170576000816000905550600101612158565b5090565b600061218761218284612bde565b612bb9565b9050828152602081018484840111156121a3576121a2612ff0565b5b6121ae848285612db2565b509392505050565b60006121c96121c484612c0f565b612bb9565b9050828152602081018484840111156121e5576121e4612ff0565b5b6121f0848285612db2565b509392505050565b6000813590506122078161352c565b92915050565b60008135905061221c81613543565b92915050565b6000813590506122318161355a565b92915050565b6000815190506122468161355a565b92915050565b600082601f83011261226157612260612feb565b5b8135612271848260208601612174565b91505092915050565b600082601f83011261228f5761228e612feb565b5b813561229f8482602086016121b6565b91505092915050565b6000813590506122b781613571565b92915050565b6000602082840312156122d3576122d2612ffa565b5b60006122e1848285016121f8565b91505092915050565b6000806040838503121561230157612300612ffa565b5b600061230f858286016121f8565b9250506020612320858286016121f8565b9150509250929050565b60008060006060848603121561234357612342612ffa565b5b6000612351868287016121f8565b9350506020612362868287016121f8565b9250506040612373868287016122a8565b9150509250925092565b6000806000806080858703121561239757612396612ffa565b5b60006123a5878288016121f8565b94505060206123b6878288016121f8565b93505060406123c7878288016122a8565b925050606085013567ffffffffffffffff8111156123e8576123e7612ff5565b5b6123f48782880161224c565b91505092959194509250565b6000806040838503121561241757612416612ffa565b5b6000612425858286016121f8565b92505060206124368582860161220d565b9150509250929050565b6000806040838503121561245757612456612ffa565b5b6000612465858286016121f8565b9250506020612476858286016122a8565b9150509250929050565b60006020828403121561249657612495612ffa565b5b60006124a484828501612222565b91505092915050565b6000602082840312156124c3576124c2612ffa565b5b60006124d184828501612237565b91505092915050565b6000602082840312156124f0576124ef612ffa565b5b600082013567ffffffffffffffff81111561250e5761250d612ff5565b5b61251a8482850161227a565b91505092915050565b60006020828403121561253957612538612ffa565b5b6000612547848285016122a8565b91505092915050565b61255981612d3e565b82525050565b61256881612d50565b82525050565b600061257982612c40565b6125838185612c56565b9350612593818560208601612dc1565b61259c81612fff565b840191505092915050565b60006125b282612c4b565b6125bc8185612c67565b93506125cc818560208601612dc1565b6125d581612fff565b840191505092915050565b60006125eb82612c4b565b6125f58185612c78565b9350612605818560208601612dc1565b80840191505092915050565b600061261e602b83612c67565b915061262982613010565b604082019050919050565b6000612641603283612c67565b915061264c8261305f565b604082019050919050565b6000612664602583612c67565b915061266f826130ae565b604082019050919050565b6000612687601c83612c67565b9150612692826130fd565b602082019050919050565b60006126aa602483612c67565b91506126b582613126565b604082019050919050565b60006126cd601983612c67565b91506126d882613175565b602082019050919050565b60006126f0602c83612c67565b91506126fb8261319e565b604082019050919050565b6000612713603883612c67565b915061271e826131ed565b604082019050919050565b6000612736602a83612c67565b91506127418261323c565b604082019050919050565b6000612759602983612c67565b91506127648261328b565b604082019050919050565b600061277c602e83612c67565b9150612787826132da565b604082019050919050565b600061279f602083612c67565b91506127aa82613329565b602082019050919050565b60006127c2603183612c67565b91506127cd82613352565b604082019050919050565b60006127e5602c83612c67565b91506127f0826133a1565b604082019050919050565b6000612808602f83612c67565b9150612813826133f0565b604082019050919050565b600061282b602183612c67565b91506128368261343f565b604082019050919050565b600061284e603183612c67565b91506128598261348e565b604082019050919050565b6000612871602c83612c67565b915061287c826134dd565b604082019050919050565b61289081612da8565b82525050565b60006128a282856125e0565b91506128ae82846125e0565b91508190509392505050565b60006020820190506128cf6000830184612550565b92915050565b60006080820190506128ea6000830187612550565b6128f76020830186612550565b6129046040830185612887565b8181036060830152612916818461256e565b905095945050505050565b6000602082019050612936600083018461255f565b92915050565b6000602082019050818103600083015261295681846125a7565b905092915050565b6000602082019050818103600083015261297781612611565b9050919050565b6000602082019050818103600083015261299781612634565b9050919050565b600060208201905081810360008301526129b781612657565b9050919050565b600060208201905081810360008301526129d78161267a565b9050919050565b600060208201905081810360008301526129f78161269d565b9050919050565b60006020820190508181036000830152612a17816126c0565b9050919050565b60006020820190508181036000830152612a37816126e3565b9050919050565b60006020820190508181036000830152612a5781612706565b9050919050565b60006020820190508181036000830152612a7781612729565b9050919050565b60006020820190508181036000830152612a978161274c565b9050919050565b60006020820190508181036000830152612ab78161276f565b9050919050565b60006020820190508181036000830152612ad781612792565b9050919050565b60006020820190508181036000830152612af7816127b5565b9050919050565b60006020820190508181036000830152612b17816127d8565b9050919050565b60006020820190508181036000830152612b37816127fb565b9050919050565b60006020820190508181036000830152612b578161281e565b9050919050565b60006020820190508181036000830152612b7781612841565b9050919050565b60006020820190508181036000830152612b9781612864565b9050919050565b6000602082019050612bb36000830184612887565b92915050565b6000612bc3612bd4565b9050612bcf8282612e26565b919050565b6000604051905090565b600067ffffffffffffffff821115612bf957612bf8612fbc565b5b612c0282612fff565b9050602081019050919050565b600067ffffffffffffffff821115612c2a57612c29612fbc565b5b612c3382612fff565b9050602081019050919050565b600081519050919050565b600081519050919050565b600082825260208201905092915050565b600082825260208201905092915050565b600081905092915050565b6000612c8e82612da8565b9150612c9983612da8565b9250827fffffffffffffffffffffffffffffffffffffffffffffffffffffffffffffffff03821115612cce57612ccd612ed1565b5b828201905092915050565b6000612ce482612da8565b9150612cef83612da8565b925082612cff57612cfe612f00565b5b828204905092915050565b6000612d1582612da8565b9150612d2083612da8565b925082821015612d3357612d32612ed1565b5b828203905092915050565b6000612d4982612d88565b9050919050565b60008115159050919050565b60007fffffffff0000000000000000000000000000000000000000000000000000000082169050919050565b600073ffffffffffffffffffffffffffffffffffffffff82169050919050565b6000819050919050565b82818337600083830152505050565b60005b83811015612ddf578082015181840152602081019050612dc4565b83811115612dee576000848401525b50505050565b60006002820490506001821680612e0c57607f821691505b60208210811415612e2057612e1f612f2f565b5b50919050565b612e2f82612fff565b810181811067ffffffffffffffff82111715612e4e57612e4d612fbc565b5b80604052505050565b6000612e6282612da8565b91507fffffffffffffffffffffffffffffffffffffffffffffffffffffffffffffffff821415612e9557612e94612ed1565b5b600182019050919050565b6000612eab82612da8565b9150612eb683612da8565b925082612ec657612ec5612f00565b5b828206905092915050565b7f4e487b7100000000000000000000000000000000000000000000000000000000600052601160045260246000fd5b7f4e487b7100000000000000000000000000000000000000000000000000000000600052601260045260246000fd5b7f4e487b7100000000000000000000000000000000000000000000000000000000600052602260045260246000fd5b7f4e487b7100000000000000000000000000000000000000000000000000000000600052603160045260246000fd5b7f4e487b7100000000000000000000000000000000000000000000000000000000600052603260045260246000fd5b7f4e487b7100000000000000000000000000000000000000000000000000000000600052604160045260246000fd5b600080fd5b600080fd5b600080fd5b600080fd5b6000601f19601f8301169050919050565b7f455243373231456e756d657261626c653a206f776e657220696e646578206f7560008201527f74206f6620626f756e6473000000000000000000000000000000000000000000602082015250565b7f4552433732313a207472616e7366657220746f206e6f6e20455243373231526560008201527f63656976657220696d706c656d656e7465720000000000000000000000000000602082015250565b7f4552433732313a207472616e736665722066726f6d20696e636f72726563742060008201527f6f776e6572000000000000000000000000000000000000000000000000000000602082015250565b7f4552433732313a20746f6b656e20616c7265616479206d696e74656400000000600082015250565b7f4552433732313a207472616e7366657220746f20746865207a65726f2061646460008201527f7265737300000000000000000000000000000000000000000000000000000000602082015250565b7f4552433732313a20617070726f766520746f2063616c6c657200000000000000600082015250565b7f4552433732313a206f70657261746f7220717565727920666f72206e6f6e657860008201527f697374656e7420746f6b656e0000000000000000000000000000000000000000602082015250565b7f4552433732313a20617070726f76652063616c6c6572206973206e6f74206f7760008201527f6e6572206e6f7220617070726f76656420666f7220616c6c0000000000000000602082015250565b7f4552433732313a2062616c616e636520717565727920666f7220746865207a6560008201527f726f206164647265737300000000000000000000000000000000000000000000602082015250565b7f4552433732313a206f776e657220717565727920666f72206e6f6e657869737460008201527f656e7420746f6b656e0000000000000000000000000000000000000000000000602082015250565b7f45524337323155524953746f726167653a2055524920736574206f66206e6f6e60008201527f6578697374656e7420746f6b656e000000000000000000000000000000000000602082015250565b7f4552433732313a206d696e7420746f20746865207a65726f2061646472657373600082015250565b7f45524337323155524953746f726167653a2055524920717565727920666f722060008201527f6e6f6e6578697374656e7420746f6b656e000000000000000000000000000000602082015250565b7f4552433732313a20617070726f76656420717565727920666f72206e6f6e657860008201527f697374656e7420746f6b656e0000000000000000000000000000000000000000602082015250565b7f4552433732314d657461646174613a2055524920717565727920666f72206e6f60008201527f6e6578697374656e7420746f6b656e0000000000000000000000000000000000602082015250565b7f4552433732313a20617070726f76616c20746f2063757272656e74206f776e6560008201527f7200000000000000000000000000000000000000000000000000000000000000602082015250565b7f4552433732313a207472616e736665722063616c6c6572206973206e6f74206f60008201527f776e6572206e6f7220617070726f766564000000000000000000000000000000602082015250565b7f455243373231456e756d657261626c653a20676c6f62616c20696e646578206f60008201527f7574206f6620626f756e64730000000000000000000000000000000000000000602082015250565b61353581612d3e565b811461354057600080fd5b50565b61354c81612d50565b811461355757600080fd5b50565b61356381612d5c565b811461356e57600080fd5b50565b61357a81612da8565b811461358557600080fd5b5056fea264697066735822122038e0bf3e2ca2ddf7fd1d1b74189ccefadcc0bfcbe2d158da20f03bf3bf1c5bae64736f6c63430008070033",
	"immutableReferences": {},
	"source": "// SPDX-License-Identifier: MITX\r\npragma solidity 0.8.7;\r\n\r\nimport \"@openzeppelin/contracts/token/ERC721/extensions/ERC721URIStorage.sol\";\r\nimport \"@openzeppelin/contracts/token/ERC721/extensions/ERC721Enumerable.sol\";\r\nimport \"@openzeppelin/contracts/utils/Counters.sol\";\r\n\r\ncontract Spriyo is ERC721URIStorage, ERC721Enumerable {\r\n    using Counters for Counters.Counter;\r\n\r\n    Counters.Counter public _assetCount;\r\n\r\n    constructor() ERC721(\"Spriyo\", \"SPRO\") ERC721Enumerable() {}\r\n\r\n    function mint(string memory _tokeURI) external returns (uint256) {\r\n        _assetCount.increment();\r\n        uint256 currentAssetId = _assetCount.current();\r\n\r\n        _mint(msg.sender, currentAssetId);\r\n        _setTokenURI(currentAssetId, _tokeURI);\r\n\r\n        return currentAssetId;\r\n    }\r\n\r\n    function burn(uint256 tokenId) external {\r\n        _burn(tokenId);\r\n    }\r\n\r\n    function _beforeTokenTransfer(\r\n        address from,\r\n        address to,\r\n        uint256 tokenId\r\n    ) internal override(ERC721, ERC721Enumerable) {\r\n        super._beforeTokenTransfer(from, to, tokenId);\r\n    }\r\n\r\n    function _burn(uint256 tokenId)\r\n        internal\r\n        override(ERC721, ERC721URIStorage)\r\n    {\r\n        super._burn(tokenId);\r\n    }\r\n\r\n    function tokenURI(uint256 tokenId)\r\n        public\r\n        view\r\n        override(ERC721, ERC721URIStorage)\r\n        returns (string memory)\r\n    {\r\n        return super.tokenURI(tokenId);\r\n    }\r\n\r\n    function supportsInterface(bytes4 interfaceId)\r\n        public\r\n        view\r\n        override(ERC721, ERC721Enumerable)\r\n        returns (bool)\r\n    {\r\n        return super.supportsInterface(interfaceId);\r\n    }\r\n}\r\n",
	"sourcePath": "D:\\nft\\cd\\contracts\\Spriyo.sol",
	"compiler": {
		"name": "solc",
		"version": "0.8.7+commit.e28d00a7.Emscripten.clang"
	},
	"schemaVersion": "3.4.7",
	"updatedAt": "2022-05-27T04:11:15.237Z",
	"devdoc": {
		"kind": "dev",
		"methods": {
			"approve(address,uint256)": {
				"details": "See {IERC721-approve}."
			},
			"balanceOf(address)": {
				"details": "See {IERC721-balanceOf}."
			},
			"getApproved(uint256)": {
				"details": "See {IERC721-getApproved}."
			},
			"isApprovedForAll(address,address)": {
				"details": "See {IERC721-isApprovedForAll}."
			},
			"name()": {
				"details": "See {IERC721Metadata-name}."
			},
			"ownerOf(uint256)": {
				"details": "See {IERC721-ownerOf}."
			},
			"safeTransferFrom(address,address,uint256)": {
				"details": "See {IERC721-safeTransferFrom}."
			},
			"safeTransferFrom(address,address,uint256,bytes)": {
				"details": "See {IERC721-safeTransferFrom}."
			},
			"setApprovalForAll(address,bool)": {
				"details": "See {IERC721-setApprovalForAll}."
			},
			"symbol()": {
				"details": "See {IERC721Metadata-symbol}."
			},
			"tokenByIndex(uint256)": {
				"details": "See {IERC721Enumerable-tokenByIndex}."
			},
			"tokenOfOwnerByIndex(address,uint256)": {
				"details": "See {IERC721Enumerable-tokenOfOwnerByIndex}."
			},
			"totalSupply()": {
				"details": "See {IERC721Enumerable-totalSupply}."
			},
			"transferFrom(address,address,uint256)": {
				"details": "See {IERC721-transferFrom}."
			}
		},
		"version": 1
	},
	"userdoc": {
		"kind": "user",
		"methods": {},
		"version": 1
	}
}